:020000040800F2
:10000000A81800242D0400080B5B00082B560008DC
:10001000095B00081F0A0008696900080000000069
:100020000000000000000000000000006D03000858
:100030007D0E000800000000C90300087F5E000874
:100040004704000847040008470400084704000864
:100050004704000847040008470400084704000854
:10006000470400084704000847040008210A000864
:100070002D0A0008390A0008470400084704000850
:100080004704000847040008470400084704000824
:100090004704000847040008470400084704000814
:1000A0004704000847040008470400084704000804
:1000B00009600008470400084704000847040008D6
:1000C00047040008470400084704000847040008E4
:1000D0004D5D000847040008470400084704000875
:1000E0004704000847040008000000004704000817
:1000F00047040008470400084704000847040008B4
:1001000047040008470400084704000847040008A3
:1001100047040008F5600008470400084704000889
:100120004704000847040008470400084704000883
:100130004704000847040008470400084704000873
:1001400000000000000000000000000000000000AF
:100150004704000847040008470400084704000853
:100160004704000847040008470400084704000843
:100170004704000847040008470400080000000086
:100180004704000847040008470400084704000823
:100190004704000847040008470400084704000813
:1001A0004704000847040008470400080000000056
:1001B00047040008470400084704000847040008F3
:1001C0004704000847040008000000000000000089
:1001D00000000000000000004704000800000000CC
:1001E000000000000000000000000000000000000F
:1001F0000000000000000000470400084704000859
:1002000047040008470400080000000047040008F5
:100210004704000847040008470400084704000892
:100220004704000800000000470400080000000028
:1002300047040008470400080000000047040008C5
:100240004704000847040008470400084704000862
:100250004704000847040008470400084704000852
:100260004704000847040008470400084704000842
:100270004704000847040008470400080000000085
:100280004704000847040008470400084704000822
:1002900000000000470400084704000800000000B8
:1002A0000000000047040008470400084704000855
:1002B000470400084704000847040008850E0008AA
:1002C00047040008470400084704000800F002F84B
:1002D00000F03CF80AA090E8000C82448344AAF1A4
:1002E0000107DA4501D100F031F8AFF2090EBAE8A2
:1002F0000F0013F0010F18BFFB1A43F0010318475A
:100300008C870000BC870000103A24BF78C878C1F1
:10031000FAD8520724BF30C830C144BF04680C600B
:10032000704700000023002400250026103A28BF53
:1003300078C1FBD8520728BF30C148BF0B60704757
:100340001FB508F01FFB1FBD10B510BD00F0E4F98C
:100350001146FFF7F5FF06F083FE00F002FA03B442
:10036000FFF7F2FF03BC00F005FA00002C4B196800
:100370000868B0E8F04F80F30988BFF36F8F4FF043
:10038000000080F3118870470000000008480068F2
:10039000006880F308884FF0000080F3148862B68C
:1003A00061B6BFF34F8FBFF36F8F00DF00BF00BF99
:1003B00008ED00E0DFF80C00016841F47001016015
:1003C000704700BF88ED00E0EFF30980BFF36F8F47
:1003D000134B1A681EF0100F08BF20ED108A20E999
:1003E000F04F106009B44FF0500080F31188BFF354
:1003F0004F8FBFF36F8F07F08FFD4FF0000080F33A
:10040000118809BC19680868B0E8F04F1EF0100F99
:1004100008BFB0EC108A80F30988BFF36F8F704774
:1004200050000024EFF30580704700000948804722
:1004300009480047FEE7FEE7FEE7FEE7FEE7FEE7C6
:10044000FEE7FEE7FEE7FEE704480549054A064BDE
:1004500070470000315F0008CD020008A812002498
:10046000A8180024A8140024A814002453EA020C9D
:1004700000F069802DE9F04B4FF00006002B1FBF04
:10048000B3FA83F503FA05F424FA05F65E4012BFC9
:100490001643B2FA82F502FA05F4C5F120051EBF33
:1004A00022FA05FC44EA0C04203556EA044C4FEAD3
:1004B000144418BF641C4FF000084FF0000990422C
:1004C00071EB030C39D3002919BFB1FA81F701FA96
:1004D00007F6B0FA80F700FA07F6C7F120071EBF4B
:1004E00020FA07FC46EA0C062037B6FBF4FCA7EB23
:1004F0000507103F07F01F0BCBF120060CFA0BFB92
:100500002CFA06F644BFB3460026202FA4BF5E4651
:100510004FF0000B5BEA060C08BF4FF0010B19EB24
:100520000B09ABFB027C48EB0608C01B06FB02CCA8
:100530000BFB03CC71EB0C01C1E70B4602464146B5
:100540004846BDE8F08B13B54FF000004FF00001B6
:10055000AFF30080BDE81C407047032A40F23080B2
:1005600010F0030C00F0158011F8013BBCF1020FF4
:10057000624498BF11F801CB00F8013B38BF11F875
:10058000013BA2F1040298BF00F801CB38BF00F88C
:10059000013B11F0030300F02580083AC0F0088009
:1005A00051F8043B083A51F804CBA0E80810F5E7ED
:1005B000121D5CBF51F8043B40F8043BAFF30080D0
:1005C000D20724BF11F8013B11F801CB48BF11F845
:1005D000012B24BF00F8013B00F801CB48BF00F815
:1005E000012B704710B5203AC0F00B80B1E81850CD
:1005F000203AA0E81850B1E81850A0E81850BFF40D
:10060000F5AF5FEA027C24BFB1E81850A0E81850AB
:1006100044BF18C918C0BDE810405FEA827C24BFFF
:1006200051F8043B40F8043B08BF7047D20728BF8D
:1006300031F8023B48BF11F8012B28BF20F8023BDC
:1006400048BF00F8012B704702F0FF0343EA032282
:1006500042EA024200F002B84FF000020429C0F062
:10066000128010F0030C00F01B80CCF1040CBCF1E4
:10067000020F18BF00F8012BA8BF20F8022BA1EB36
:100680000C0100F00DB85FEAC17C24BF00F8012B1B
:1006900000F8012B48BF00F8012B70474FF0000213
:1006A00000B5134694469646203922BFA0E80C5068
:1006B000A0E80C50B1F12001BFF4F7AF090728BF43
:1006C000A0E80C5048BF0CC05DF804EB890028BFBF
:1006D00040F8042B08BF704748BF20F8022B11F0E8
:1006E000804F18BF00F8012B704770477047704764
:1006F00010B500F009F8006810BD10B5044600F010
:1007000003F8046010BD0000004870474412002444
:1007100000487047441200247546FFF7F9FFAE46C3
:1007200005006946534620F00700854618B020B5FD
:10073000FFF78AFEBDE820404FF000064FF00007AB
:100740004FF000084FF0000B21F00701AC46ACE879
:10075000C009ACE8C009ACE8C009ACE8C0098D46E6
:10076000704710B50446AFF300802046BDE8104046
:10077000FFF7F5BD01491820ABBEFEE726000200D9
:10078000704700009FED060AF7EE000AC0ED000A70
:1007900080ED010A80ED020A80ED030A7047000037
:1007A00000000000D2EC031A91EC030A05F0B6B881
:1007B00001220248114602F055BA00000008025812
:1007C00000220248012102F04DBA00000008025840
:1007D0007047000001220248082102F043BA0000DD
:1007E0000008025800220248082102F03BBA00002B
:1007F00000080258704730B54FF47A75044602E09D
:10080000284600F004F8601E84B2F9D230BD4FF0E3
:10081000E02370B55D69C0EB0010996944010022C6
:1008200098698842FCD002D2A1EB000102E0A5EB5E
:10083000000631440A440146A242F1D370BD10B50E
:10084000FFF7C6FFFFF7D6FF06F092FA044606F060
:1008500017FB204310BD00002DE9FC41074616465A
:1008600000200D4600900190FFF7AAFF922000F0B3
:10087000BDF806226946122000F09AF8FFF798FFAB
:100880009DF801009DF80010484C000200B208439A
:1008900000EE100AD4ED000AB8EEC00A20EE200ADD
:1008A00085ED000A9DF803009DF80210D4ED000AC2
:1008B000000200B2084300EE100AB8EEC00A20EEB3
:1008C000200A85ED010A9DF805009DF8041000023C
:1008D00000B2084300EE100AB8EEC00A20EE200A6B
:1008E00085ED020AFFF77EFF08226946002000F02E
:1008F0005FF8FFF76FFF9DF800000F2830D19DF8DB
:1009000003009DF80210D4ED010A000200B2084372
:1009100000EE100AB8EEC00A20EE200A87ED000AA9
:100920009DF805009DF80410D4ED010A000200B204
:10093000084300EE100AB8EEC00A20EE200A87ED48
:10094000010A9DF807009DF80610000200B2084356
:1009500000EE100AB8EEC00A20EE200A87ED020A67
:10096000FFF72EFFA22000F041F802226946222064
:1009700000F01EF8FFF71CFF9DF800109DF8010025
:10098000C90041EA5010B0F5806F01DBA0F50060AE
:1009900000EE100AB4EE001AF3EE070AB8EEC00A31
:1009A00040EE010AC6ED000ABDE8FC8124000024E7
:1009B00070B540F0800014460D4600F017F806E0D0
:1009C000552000F013F8641E05F8010BE4B2002C6A
:1009D000F6D170BD10B540F080000C4600F006F86E
:1009E000552000F003F8207010BD000001B582B062
:1009F0004FF47A700123009001AA034802A903F082
:100A0000E3FF9DF804000EBD8401002410B50C46E0
:100A1000FFF7ECFF2046BDE81040FFF7E7BFFEE719
:100A2000014800F05FBE000094020024014800F07D
:100A300059BE000018040024014800F053BE000015
:100A40000C030024294A016891423AD0274A1832FF
:100A5000914236D0254A3032914232D0234A483230
:100A600091422ED0214A603291422AD01F4A7832D8
:100A7000914226D01D4A9032914222D01B4AA83280
:100A800091421ED01A4A91421BD0194A1832914203
:100A900017D0174A3032914213D0154A483291424A
:100AA0000FD0134A603291420BD0114A78329142F2
:100AB00007D00F4A9032914203D00D4AA83291429A
:100AC00011D1CAB21823103AB2FBF3F26FF3090145
:100AD000032A02F00703074AD25CC26500D9091D48
:100AE00081650846704721F0FF01F9E710000240D8
:100AF00010040240D889000830B5224A0123016859
:100B00009142CAB21BD01F4C1434A14217D01D4CC5
:100B10002834A14213D01B4C3C34A1420FD0194CB5
:100B20005034A1420BD0174C6434A14207D0154C6D
:100B30007834A14203D0134C8C34A1420CD114213F
:100B4000114C083AB2FBF1F10F4A803201F01F0557
:100B500004EB8101AB4010E00C4D1824103A0D4419
:100B6000B2FBF4F1A82D00D80831094A01F01F04A6
:100B700002EB8101064AA3408032603080E80E001B
:100B800030BD00000854025800580258F0FBFDBF69
:100B90000008024010B50279531E072B2DD8174CC0
:100BA0000168A1421BD0154C1434A14217D0134C3C
:100BB0002834A14213D0114C3C34A1420FD00F4C29
:100BC0005034A1420BD00D4C6434A14207D00B4CE1
:100BD0007834A14203D0094C8C34A14203D1084996
:100BE000074C443102E00749064C443104EB8202D1
:100BF000C0E91B2101219940416710BD08540258EA
:100C0000FC580258FC08024010B583694FF0C074CC
:100C1000826A0146002053B1B3F5005F15D072B16E
:100C2000012A0CD0022A0AD0032A09D104E01AB101
:100C3000012A06D0022A03D1C96AC90100D50120C0
:100C400010BDC96AA142FAD010BD002AF7D0012A0E
:100C5000F2D0022AF3D0032AF3D010BD2DE9F04FD1
:100C6000804E804FDFF8FC911836DFF8F8A1483746
:100C70000468856D0AF1300ADFF8ECB14C45DFF805
:100C8000ECC1DFF8ECE16DD0B4426BD0544569D0D3
:100C9000BC4267D0DFF8D081A8F11808444561D084
:100CA0005C455FD064455DD074455BD0DFF8C4819E
:100CB000444557D0DFF8BC8108F11808444551D0AD
:100CC000DFF8B08108F1300844454BD0DFF8A4814B
:100CD00008F14808444545D0DFF8988108F16008DC
:100CE00044453FD0DFF88C8108F17808444539D07D
:100CF000DFF8808108F19008444533D0DFF8748133
:100D000008F1A80844452DD0DFF86C81444529D06E
:100D1000DFF8648108F11408444523D0DFF85881D6
:100D200008F1280844451DD0DFF84C8108F13C0843
:100D3000444517D0DFF8408108F15008444511D0F0
:100D4000DFF8348108F1640844450BD0DFF82881CE
:100D500008F17808444505D0DFF81C8108F18C08BB
:100D6000444509D1D0E91948C4F80480C46E1CB1C7
:100D7000D0E91C48C4F8048004684C452ED0B44225
:100D80002CD054452AD0BC4228D0374E183EB4420D
:100D900024D05C4522D0644520D074451ED0354E09
:100DA000B4421BD0334E1836B44217D0314E3036D1
:100DB000B44213D02F4E4836B4420FD02D4E603679
:100DC000B4420BD02B4E7836B44207D0294E903621
:100DD000B44203D0274EA836B44215D190F85C60D7
:100DE0003F2406F01F06B440AC600468256825F473
:100DF000802525602EE09A600068C160BDE8F08F14
:100E000099600068C260F9E71B4EB4421BD01A4ECD
:100E10001436B44217D0184E2836B44213D0164EAA
:100E20003C36B4420FD0144E5036B4420BD0124E62
:100E30006436B44207D0104E7836B44203D00E4E1A
:100E40008C36B442DAD190F85C60012406F01F06BB
:100E5000B4406C60046863608368402B0368CFD142
:100E6000C9E700001000024088000240A0000240D4
:100E7000B80002401004024008540258704772B68D
:100E8000FEE70000014801F0D1BA0000E4000024B0
:100E9000F0B503684FF6FC716D4C426BD3F884508B
:100EA0008D4345EA8205C3F88450036853F8845F94
:100EB000068F25F47F0545EA06451D60836B654D69
:100EC0009F180268D2F888308B4343EA8703C2F840
:100ED0008830026852F8883F868F23F4FE0343EA85
:100EE00006431360066856F8A03FC26B8B4307EBBE
:100EF000420243EA82033360076857F8A03FB0F824
:100F0000406023F4FE0343EA06433B60D0E9103619
:100F100003FB06220368D3F8B0608E4346EA8206DC
:100F2000C3F8B0600368B0F84860D3F8B07027F435
:100F3000FE0747EA0646C3F8B060D0E912670368C7
:100F400006FB0722D3F8AC608E4346EA8206C3F85C
:100F5000AC60D0E91467036806FB0722D3F8F060A1
:100F60008E4346EA8206C3F8F0600368B0F8586022
:100F7000D3F8F07027F47C1747EA0646C3F8F06010
:100F80000368876D53F8C06F02EB47028E4346EA51
:100F9000820119600168B0F85C20D1F8C03023F4F8
:100FA0007C1343EA0242C1F8C020016890F8602037
:100FB000D1F8C03023F07C5343EA0262C1F8C0206C
:100FC000416B04EB8101C166826B01EB8202026717
:100FD000C36B02EBC3024267D0E91034634302EBF8
:100FE00083028267D0E91234634302EB8302C26753
:100FF000D0E91434634302EB8302C0F88020836D90
:1010000002EBC303C0F88430C46D826E544303EB1B
:101010008403C0F88830046E544303EB8402C0F8A4
:101020009020AA420AD9D0F89C20032142F0200245
:10103000C0F89C2080F898100120F0BD002200E04C
:1010400004C1D0F890308B42FAD80020F0BD0000E7
:1010500000AC0040FCD300402DE9F0411D4616468F
:101060000F4604462DED028BF7EE008AD0ED031AF1
:1010700090ED001A90ED010A90ED022A61EE211A1E
:1010800021EE011AB0EE008AF0EE680A40EE021A74
:1010900000EE001A21EE880A51EE080A05F026FD3E
:1010A00087ED000A94ED010A94ED032AD4ED000ABD
:1010B00094ED021A20EE020AF8EE001A00EEC10AC0
:1010C00020EE210A05F076FC86ED000A94ED030A75
:1010D000F0EE680A94EC031A61EE211A21EE011A6F
:1010E00042EE001A00EE001A21EE880A51EE080ABC
:1010F00005F0FCFC85ED000ABDEC028BBDE8F0813B
:101100002DE9F84F044601F0B3FD00903CB194F88E
:101110003500022806D0802161650020E4E001202E
:10112000BDE8F88FC74DC74EC64918352068303620
:10113000DFF81483DFF814938842DFF814A3DFF894
:1011400014B32ED0A8422CD0B0422AD0404528D08B
:10115000484526D0504524D0584522D0BD4A1832A3
:1011600090421ED0BC4A90421BD0BB4A18329042DB
:1011700017D0B94A3032904213D0B74A4832904221
:101180000FD0B54A603290420BD0B34A78329042C9
:1011900007D0B14A9032904203D0AF4AA832904271
:1011A00009D1026822F01E0202602068426922F022
:1011B0008002426103E0026822F00E0202602768AA
:1011C0008F4238464DD0A8424BD0B04249D040451E
:1011D00047D0484545D0504543D0584541D09D4A19
:1011E000183290423DD09C4A90423AD09A4A1832E6
:1011F000904236D0984A3032904232D0964A4832A5
:1012000090422ED0944A603290422AD0924A78324C
:10121000904226D0904A9032904222D08E4AA832F4
:1012200090421ED08D4A90421BD08C4A143290427C
:1012300017D08A4A2832904213D0884A3C329042D2
:101240000FD0864A503290420BD0844A643290428A
:1012500007D0824A7832904203D0804A8C3297423B
:1012600004D1206E026822F4807202607549206801
:10127000884228D0A84226D0B04224D0404522D06F
:10128000484520D050451ED058451CD071491831D2
:10129000884218D07049884215D06F491831884269
:1012A00011D06D49303188420DD06B4948318842A8
:1012B00009D069496031884205D067497831884250
:1012C00001D065499031016821F0010101600EE013
:1012D00001F0CEFC0099401A052808D92022626549
:1012E0000321002084F8351084F8340017E73868AB
:1012F000C007EDD1534A0121206890422ED0A84268
:101300002CD0B0422AD0404528D0484526D0504560
:1013100024D0584522D04F4B183398421ED04E4B04
:1013200098421BD04C4B1833984217D04A4B30335D
:10133000984213D0484B483398420FD0464B603305
:1013400098420BD0444B7833984207D0424B9033AD
:10135000984203D0404BA833984208D194F85C706F
:101360003F23A06D07F01F07BB40836007E094F8A0
:101370005C30A06D03F01F0301FA03F343602068A3
:1013800090424DD0A8424BD0B04249D0404547D0C2
:10139000484545D0504543D0584541D02D4A183294
:1013A00090423DD02C4A90423AD02B4A183290427B
:1013B00036D0294A3032904232D0274A48329042C1
:1013C0002ED0254A603290422AD0234A7832904269
:1013D00026D0214A9032904222D01F4AA832904211
:1013E0001ED01E4A90421BD01C4A1432904217D085
:1013F0001A4A2832904213D0184A3C3290420FD0F9
:10140000164A503290420BD0144A6432904207D0B0
:10141000124A7832904203D0104A8C3290420BD15B
:10142000D4E919024260E06E30B1026822F48072A1
:101430000260D4E91C024260002084F8351084F870
:1014400034006DE610000240580002407000024077
:1014500088000240A00002401004024008540258D4
:101460002DE9F05F28B190F83510022904D08021D1
:1014700041650120BDE8F09F904C904B0168183CFD
:1014800018338E4ADFF83C92A1428D4CDFF838E2E7
:101490008E4FDFF83CB2DFF83CA28F4D8F4E31D03B
:1014A00091422FD099422DD0A1422BD0494529D02D
:1014B000714527D0B94225D0DFF810C20CF1180CC5
:1014C00061451FD0DFF808C2ACF1600C614519D04E
:1014D000DFF8FCC1ACF1480C614513D0DFF8F0C176
:1014E000ACF1300C61450DD0DFF8E4C1ACF1180C63
:1014F000614507D0594505D0514503D0A94201D0D7
:10150000B1422CD1DFF8B4C14FF0040880F8358027
:10151000ACF1180C61451DD091421BD0994219D0F5
:10152000A14217D0494515D0714513D0B94211D009
:101530006648183081420DD065486038814209D034
:1015400063484838814205D061483038814201D033
:101550005F481838086820F001000860ABE0D1F857
:1015600000C02CF00E08DFF854C1C1F80080ACF1C7
:10157000180C0168614527D0914225D0994223D0AB
:10158000A14221D049451FD071451DD0B9421BD081
:10159000DFF838C10CF1180C614515D0DFF830C107
:1015A000ACF1600C61450FD0DFF824C1ACF1480C00
:1015B000614509D0DFF818C1ACF1300C614503D0AA
:1015C000DFF80CC1ACF1180CD1F800C02CF0010C04
:1015D000C1F800C0DFF8E4804FF0010C0168A8F109
:1015E0001808414546D0914244D0994242D0A14288
:1015F00040D049453ED071453CD0B9423AD0334AFB
:101600001832914236D0324A603A914232D0304A52
:10161000483A91422ED02E4A303A91422AD02C4A52
:10162000183A914226D0594524D0514522D0A9429A
:1016300020D0B1421ED02A4A91421BD0284A1432EF
:10164000914217D0264A2832914213D0244A3C3284
:1016500091420FD0224A503291420BD0204A64323C
:10166000914207D01E4A7832914203D01C4A8C32F4
:10167000914218D1016E0A6822F480720A6090F8D3
:101680005C20816D02F01F020CFA02F24A60D0E980
:1016900019124A60C16E31B10A6822F480720A6080
:1016A000D0E91C124A600022016D80F835C080F834
:1016B000342001B188470020DCE600002800024009
:1016C000580002407000024088000240A000024022
:1016D0007004024088040240A0040240B8040240A2
:1016E000085402582DE9FC5F0446F74E0020DFF84D
:1016F000D88300904FF41652F44808F11808A56DED
:10170000DFF8C493DFF8C0A3016809F1300920684D
:101710000AF1480AB1FBF2F1B04201912F68D5F805
:1017200000C0DFF8ACB335D04146884232D04845DE
:1017300030D050452ED058452CD0E549183188423C
:1017400028D0E3493031884224D0E14948318842E9
:1017500020D0E04988421DD0DE491831884219D096
:10176000DC493031884215D0DA494831884211D0FD
:10177000DFF860E30EF1600E70450BD0D54A783289
:10178000904207D0D34B9033984203D0D149A8312F
:1017900088427DD194F85C20082102F01F0201FAF2
:1017A00002F23A424AD0B04232D0404530D04845A9
:1017B0002ED050452CD058452AD0C54A18329042D8
:1017C00026D0C34A3032904222D0C14A4832904299
:1017D0001ED0C04A90421BD0BE4A1832904217D049
:1017E000BC4A3032904213D0BA4A483290420FD0AD
:1017F000B84A603290420BD0B64A7832904207D055
:10180000B44A9032904203D0B24AA832904203D1F7
:10181000026802F0040202E0026802F008026AB103
:10182000026822F00402026094F85C0000F01F00DD
:101830008140A960606D40F00100606594F85C0033
:10184000012100F01F008140394240D02068B042A1
:1018500034D0404532D0484530D050452ED0584540
:101860002CD09B4A1832904228D0994A303290426C
:1018700024D0974A4832904220D0964A90421DD0B8
:10188000944A1832904219D0924A3032904200E085
:10189000AFE113D08F4A483290420FD08D4A603268
:1018A00090420BD08B4A7832904207D0894A9032CE
:1018B000904203D0874AA83290427DD1406910F00F
:1018C000800F04D0A960606D40F00200606594F85C
:1018D0005C00042100F01F00814039423ED02068A6
:1018E000B04232D0404530D048452ED050452CD063
:1018F00058452AD0764A1832904226D0744A30325F
:10190000904222D0724A483290421ED0714A904290
:101910001BD0704A1832904217D06E4A3032904233
:1019200013D06C4A483290420FD06A4A60329042DB
:101930000BD0684A7832904207D0664A9032904283
:1019400003D0644AA83290424ED1006810F0020FD2
:1019500004D0A960606D40F00400606594F85C00FC
:10196000102100F01F008140394258D02068B04259
:1019700034D0404532D0484530D050452ED058451F
:101980002CD0534A1832904228D0514A30329042DB
:1019900024D04F4A4832904220D04E4A90421DD027
:1019A0004C4A1832904219D04A4A3032904215D0EF
:1019B000484A4832904200E014E00FD0454A603275
:1019C00090420BD0434A7832904207D0414A90323D
:1019D000904203D03F4AA832904207D1006800F0FD
:1019E000080006E0006872E70068B7E7006800F0EA
:1019F0000400A0B1A96020680168490304D500680B
:101A0000000308D5A16C07E00168C90503D401688B
:101A100021F008010160216C09B12046884794F843
:101A20005C00202100F01F008140394279D02068FD
:101A3000B04232D0404530D048452ED050452CD011
:101A400058452AD0224A1832904226D0204A3032B5
:101A5000904222D01E4A483290421ED01D4A9042E7
:101A60001BD01C4A1832904217D01A4A303290428A
:101A700013D0184A483290420FD0164A6032904232
:101A80000BD0144A7832904207D0124A90329042DA
:101A900003D0104AA832904203D1006800F0100031
:101AA00002E0006800F00200B0B3A96094F83500CD
:101AB0000428206801680FD049037ED50068000320
:101AC0002BD4616C2AE000001000024014000024B6
:101AD000700002401004024021F0160101602068ED
:101AE000416921F080014161206C08B9A06C20B1EE
:101AF0002068016821F00801016094F85C303F2102
:101B0000012003F01F0300229940A96084F83500EA
:101B100084F83420216D65E003E0E16B09B12046D3
:101B20008847606D00287DD0606DC00759D020685F
:101B3000042184F83510B0422BD0404529D04845C7
:101B400027D0504525D0584523D09D49884220D0E4
:101B50009B49183188421CD099493031884218D0AD
:101B60009849884215D097491831884211D0954933
:101B7000303188420DD093494831884209D091498B
:101B80006031884205D08F497831884201D08D4933
:101B90009031016821F00101016020680099019AEB
:101BA000491C0091914202D80168C907F6D100682A
:101BB000C00710D003200FE0FFE70168C905ACD4CF
:101BC00003680121002223F01003036084F835101C
:101BD00084F83420A1E7012084F83500002084F83F
:101BE0003400E16C00291DD002B02046BDE8F05F52
:101BF0000847754988421DD073491431884219D06D
:101C000071492831884215D06F493C31884211D042
:101C10006D49503188420DD06B496431884209D0FA
:101C2000694900E084E07831884203D066498C310C
:101C300088427DD194F85C800427016808F01F0871
:101C400007FA08F717EA0C0F009746D04F0744D55C
:101C500000980F04686003D5C8033CD4A16CC1E7A9
:101C6000880638D42068B0422DD055496039884262
:101C700029D0484527D0504525D0584523D0504934
:101C8000884220D04E49183188421CD04C4930310E
:101C9000884218D04B49884215D04A4918318842A9
:101CA00011D04849303188420DD0464948318842E8
:101CB00009D0704507D0904205D0984203D04149E1
:101CC000A831884203D1016821F0080102E00168CF
:101CD00021F004010160216C84E7022707FA08F76C
:101CE00017EA0C0F00974ED08F074CD500980F04C1
:101CF000686003D5C80344D4616C73E7880640D498
:101D00002068B0422FD02E49603988422BD04845F8
:101D100029D0504527D0584525D02949884222D07E
:101D20002749183188421ED025493031884200E0C9
:101D300044E018D02349884215D0224918318842FE
:101D400011D02049303188420DD01E494831884297
:101D500009D0704507D0904205D0984203D0194968
:101D6000A831884203D1016821F0140102E0016822
:101D700021F00A010160012184F83510002084F867
:101D80003400E16B2EE7082202FA08F212EA0C0F87
:101D900014D0090712D5016821F00E01016094F8F2
:101DA0005C100120002201F01F0100FA01F16960BE
:101DB000606584F8350084F8342012E7BDE8FC9FA4
:101DC0008800024010040240085402582DE9F05FD8
:101DD000044600F04DFF002C07467DD0E24E022164
:101DE00020684FF00308DFF884934FF00005DFF818
:101DF00080A3B042DFF87CB334D0DB4A1832904283
:101E000030D048452ED050452CD058452AD0D94AFC
:101E10001832904226D0D74A3032904222D0D54A4A
:101E2000483290421ED0D44A90421BD0D24A183237
:101E3000904217D0D04A3032904213D0CE4A483226
:101E400090420FD0CC4A603290420BD0CA4A7832CE
:101E5000904207D0C84A9032904203D0C64AA83276
:101E600090427DD184F83510B04284F834502ED0A1
:101E7000BD49183188422AD0484528D0504526D03F
:101E8000584524D0BB491831884220D0B949303157
:101E900088421CD0B7494831884218D0B649884298
:101EA00015D0B5491831884211D0B3493031884234
:101EB0000DD0B1494831884209D0AF4960318842DC
:101EC00005D0AD497831884201D0AB4990310168E5
:101ED00021F00101016008E025E100BF00F0C8FE2B
:101EE000C01B052801D920211AE120680068C0071D
:101EF000F4D1D4E902032168103418438E4694E8E3
:101F00008410D4E9033809683A4310439B4A40EAF5
:101F10000C00676918431140103C40EA0800042F88
:101F200040EA010003D1D4E90B1211430843616870
:101F3000A1F12902052A0BD9163A032A08D9083A31
:101F4000012A05D9083A032A02D97439032901D88C
:101F500040F48010CEF800002068676A406900E015
:101F600020E0042F20F0070047EA00070DD1D4E954
:101F70000A01074349B12046FEF746FE28B140203A
:101F80006065012184F83510CDE020684761204666
:101F9000FEF758FD94F85C203F2102F01F029140AB
:101FA000816055E0764A90421BD0754B14339842BD
:101FB00017D0734B2833984213D0714B3C3398425F
:101FC0000FD06F4B503398420BD06D4B6433984217
:101FD00007D06B4B7833984203D0694B8C339842CF
:101FE0007ED184F8351084F83450664B0168A268BD
:101FF00001EA030E402A74D0802A73D05FF00002F9
:10200000D4E90378D4E9053142EAD70242EAD80894
:102010005B4AD4E9077C48EAD30848EAD10141EA9F
:10202000D701524241EA1C11142341EA0E0101601A
:1020300020681044B0FBF3F08000E0652046FEF716
:1020400001FD94F85C20012102F01F0291404160E3
:102050002068B04257D044491831884253D048458F
:1020600051D050454FD058454DD042491831884243
:1020700049D040493031884245D03E4948318842B4
:1020800041D03D4988423ED03B49183188423AD040
:1020900039493031884236D037494831884232D0C8
:1020A0003549603188422ED03349783188422AD070
:1020B00031499031884226D02F49A831884222D018
:1020C0002F4988421FD02E49143188421BD02C49F9
:1020D0002831884217D02A493C31884213D002E087
:1020E0001DE017E018E02649503188420BD0244902
:1020F0006431884207D022497831884203D0204990
:102100008C31884229D12046FEF7F6FCA068802851
:102110000CD00CE0102273E74FF4804270E74021AE
:10212000616584F835800120BDE8F09F6560216E0F
:1021300020790860D4E9190141606068401E0728D1
:1021400008D82046FEF726FDE06E0560D4E91C01A4
:10215000416002E0E566256765670120656584F8F2
:1021600035000020E0E7000010000240400002407F
:102170005800024070000240100402403F8010FEF0
:10218000085402580F00FEFF2DE9F84F04008C465A
:102190004FF00000009014D094F83400012812D0C1
:1021A00094F835500120002184F83400012D0CD022
:1021B000C00260650120009084F834100098BDE8EA
:1021C000F88F0120FBE70220F9E78C4D02262068FA
:1021D00084F83560A8428A4D61658A4E8A4FDFF8DF
:1021E0002C82DFF82C92DFF82CA2DFF82CB226D05C
:1021F000A84224D0B04222D0B84220D040451ED0C0
:1022000048451CD050451AD0584518D083498842BB
:1022100015D082491831884211D080493031884226
:102220000DD07E494831884209D07C4960318842CE
:1022300005D07A497831884201D0784990310168D7
:1022400021F00101016061462046FEF707FD6B4960
:10225000206888422CD0A8422AD0B04228D0B84268
:1022600026D0404524D0484522D0504520D058455E
:102270001ED06A4A90421BD0684A1832904217D04A
:10228000664A3032904213D0644A483290420FD0AE
:10229000624A603290420BD0604A7832904207D056
:1022A0005E4A9032904203D05C4AA83290420CD1F0
:1022B000026822F01E0242F016020260206C88B111
:1022C0002068026842F008020BE0026822F00E0269
:1022D00042F00A020260206C20B12068026842F0DD
:1022E00004020260206888424BD0A84249D0B04224
:1022F00047D0B84245D0404543D0484541D05045ED
:102300003FD058453DD0454A90423AD0434A1832D2
:10231000904236D0414A3032904232D03F4A483221
:1023200090422ED03D4A603290422AD03B4A7832C9
:10233000904226D0394A9032904222D0374AA83271
:1023400090421ED0364A90421BD0354A14329042F9
:1023500017D0334A2832904213D0314A3C3290424F
:102360000FD02F4A503290420BD02D4A6432904207
:1023700007D02B4A7832904203D0294A8C329042BF
:102380000DD1206E0268D20303D5026842F4807238
:102390000260E06E18B1026842F480720260206848
:1023A000884226D0A84224D0B04222D0B84220D0C1
:1023B00040451ED048451CD050451AD0584518D02D
:1023C0001649884215D015491831884211D0134951
:1023D000303188420DD011494831884209D00F4927
:1023E0006031884205D00D497831884201D00B49CF
:1023F0009031016841F001010160DFE61000024008
:102400002800024040000240580002407000024094
:1024100088000240A0000240B800024010040240C0
:102420000854025870477047704770472DE9FF5FA6
:10243000DFF80CB304460BF10401DBF8000025685B
:102440000F68AA468007D5F85090696DD5F850807E
:102450006E6D2A6DD5F854C02B6D00EA8770009020
:1024600009F470496F6D286D01EA09010191DAF8EC
:102470005410DAF85490DAF8505008F00F0806EAD1
:102480000806029602F0F00203F071536FEA0906A3
:102490001F4000F060700CEA020CCDF80CC0F20591
:1024A00001EA00090CD4E843C00509D400214FF427
:1024B0008073CAF85030CBF800102046FFF7B5FF04
:1024C000700512D4E84340050FD4206800234FF470
:1024D0008068D0F8DC20D0F8E410C0F85080CBF849
:1024E00000301140204600F0AAFADFF858A2009808
:1024F00050B12268830F00EA0A001065CBF8003063
:1025000020460099FFF78EFF019850B12268830F93
:1025100000EA0A001065CBF800302046019900F06F
:1025200090FA029850B12268830F00EA0A00106501
:10253000CBF800302046029900F079FA039850B1A8
:102540002268830F00EA0A001065CBF800302046AD
:10255000039900F06DFA30050CD4E843000509D466
:10256000236800204FF400621A65CBF80000204673
:1025700000F068FAB00512D4E84380050FD4206853
:1025800000234FF40078D0F8D820D0F8E010C0F83D
:102590005080CBF800301140204600F051FA300353
:1025A0000CD4E843000309D4236800204FF4002230
:1025B0001A65CBF80000204600F038FAF0030CD47E
:1025C000E843C00309D4236800204FF480321A6521
:1025D000CBF80000204600F031FA70030CD4E84339
:1025E000400309D4226800204FF480231365CBF800
:1025F0000000204600F021FAB0030FD4E843800326
:102600000CD4236800204FF400321A65CBF8000088
:10261000D4F89C0040F08000C4F89C00B9F1000F91
:102620000BD022684FEA997309EA0A001065CBF8CB
:10263000003049462046FFF7F7FE5FB12268BB0F26
:1026400007EA0A001065CBF80030D4F89C00384344
:10265000C4F89C003C492068884268D16068814683
:102660008068800763D0D9F82060D9F82410D9F8A1
:102670002080D9F82400D9F820C0D9F82470D9F8DE
:102680002030D9F82450D9F8202003F4FC4306F078
:102690000F0AD9F824601D40D9F824B008F030089A
:1026A0000CF4C07C02F4F02211EA0A0100EA0808E6
:1026B00007EA0C0706EA0206D9F820A004D0C9F8F8
:1026C0002010204600F0B6F9B8F1000005D061688E
:1026D00008624146204600F0AFF96FEA0B00400661
:1026E0000ED46FEA0A0040060AD460684021C36B2A
:1026F000C26B01622046190C02F03F0200F09BF908
:102700002FB1606807623946204600F092F935B172
:1027100060680562D4F89C002843C4F89C0036B178
:1027200060680662D4F89C003043C4F89C00D4F87A
:102730009C00002802D02046FFF775FEBDE8FF9FF1
:1027400010A80040FFFFCF3F00A000402DE9F0415E
:1027500094B08D494C2204466846FDF743FF64B1AE
:102760008A4D2068A84202D100F58070606094F81C
:1027700098004FF0000820B108E0012014B0BDE837
:10278000F081204684F8998000F002F92068816980
:1027900021F01001816100F06BFA0327064604E086
:1027A00000F066FA801B0A2811D8206880690007AB
:1027B000F6D42068816941F00101816100F058FA86
:1027C00006460DE000F054FA801B0A2808D9D4F818
:1027D0009C0040F00100C4F89C0084F89870CCE79D
:1027E00020688069C007EDD02068816941F002014E
:1027F0008161207C01282068816937D041F0400147
:102800008161607C01282068816932D021F4804197
:102810008161A07C0128206881692DD041F480511C
:1028200081612068A268816921F44071114381614E
:102830002068816921F0A40181612068016921F08B
:1028400010010161E068012819D010B302281BD0E3
:102850002068816941F0800181612068016941F04F
:1028600010010161E06803280ED012E021F0400160
:10287000C6E741F48041CBE721F48051D0E72068DE
:10288000816941F0040103E02068816941F0200181
:102890008161207E6FF0FF02D4E90773A68A1102DE
:1028A000400602EB0727A0F10070384327685B1E43
:1028B000184301EB06463043F861A068B0F5407F4D
:1028C00011D104F12800A68C6FF00F0C89C801EB20
:1028D0000641401E02EB0322104322680CEB071353
:1028E00018430843D060206E30B12068626ED0F883
:1028F000C0101143C0F8C010D4E917126846D14285
:1029000009D02168A36E51F8C82F50F8233022F067
:1029100007021A430A60216C49B12168626C51F8C0
:10292000BC3F50F8226023F0070232430A60A16CDA
:1029300051B12168E36C51F8BC2F50F8233022F0DC
:10294000700242EA03120A60216D51B12168626D82
:1029500051F8BC3F50F8220023F4E06242EA002024
:1029600008602068A84204D16068816821F00301F2
:102970008160C4F894800121C4F89C8084F8981088
:102980002046FEF785FAF9E6F089000800A000402D
:1029900010B5B4B0044614212EA8FDF77FFEB8216F
:1029A0006846FDF77BFE1E492068884235D100202D
:1029B0004FF40041CDE900104A0368461B9200F035
:1029C000F9FB08B1FEF75BFA1648016841F4807123
:1029D0000160006800F48070339012480C38016880
:1029E00041F00801016000680523022200F00800A0
:1029F000339000204FF440512E912EA9CDE92F2085
:102A0000CDE93103084800F01FF8002205219F207E
:102A100000F01EFA9F2000F00DFA34B010BD000047
:102A200000D40040EC440258000C02587047704734
:102A300070477047704770477047704770477047DE
:102A400070477047704700002DE9F84F03247A4D16
:102A500000234FF001094FF0B04B4FF00F0AE4E0B4
:102A600009FA03F6324078D00F7907F00307012FF7
:102A700001D0022F1AD187684FEA430ED1F80CC05B
:102A800004FA0EF827EA08070CFA0EFC4CEA070CC9
:102A9000C0F808C0476891F804C0B743CCF3001CE5
:102AA0000CFA03FC4CEA070CC0F804C00E79F6439C
:102AB000B6070BD0C6684FEA43088F6804FA08FCD3
:102AC00026EA0C0607FA08F73743C7600E7906F0C6
:102AD0000306022E12D1DE080F694FEA437C00EB99
:102AE0008606B646366A4FEADC6C0AFA0CF807FA34
:102AF0000CF726EA08063743CEF820700F790668EF
:102B00004FEA430807F0030704FA08FC07FA08F73E
:102B100026EA0C06374307604E6816F4403F1CD087
:102B2000464E376847F00207376036689F0706F061
:102B30000206009623F0030606F1B046B6463F0FA4
:102B4000D6F80864DFF8F8800AFA07FC404526EA60
:102B50000C0603D14FF0000C3AE065E0DFF8E4C06A
:102B6000604502D14FF0010C32E0DFF8DCC0604577
:102B700002D14FF0020C2BE0DFF8D0C0604502D14B
:102B80004FF0030C24E0DFF8C8C0604502D14FF0DD
:102B9000040C1DE0DFF8BCC0604502D14FF0050C0D
:102BA00016E0DFF8B4C0604502D14FF0060C0FE02C
:102BB000DFF8A8C0604502D14FF0070C08E0DFF84D
:102BC000A0C0604502D14FF0090C01E04FF00A0CA3
:102BD0000CFA07FC4CEA060CCEF808C44F68DBF888
:102BE0000060FF0226EA020600D516435F46CBF8D6
:102BF0000060D1F804C0DBF804605FEA8C2C26EAA0
:102C0000020600D516437E606E684F6826EA02060B
:102C1000BF0300D516436E602E684F6826EA020691
:102C2000FF0300D516432E605B1C0A6832FA03F6D8
:102C30007FF416AFBDE8F88F80000058F4440258C6
:102C4000000002580004025800080258000C025804
:102C5000001002580014025800180258001C0258B4
:102C6000002402580AB1816170470904FBE70000A3
:102C7000014880687047000008000024024881680D
:102C8000027811448160704708000024032010B5C9
:102C900000F0FEF801F0CEF80F4A104914681368EE
:102CA000C4F3032203F00F038A5CC95C02F01F0225
:102CB00001F01F01D0400A4A20FA01F111600949D0
:102CC00008600F2000F010F808B1012010BD00F0DE
:102CD0009FF8002010BD000018440258648A0008C4
:102CE000180000241400002410B5102804468AB0EF
:102CF0002DD2002201461C2000F0AAF81C2000F072
:102D000099F8184804601848016841F00101016011
:102D1000006809A900F001000890684601F016F863
:102D20000598B8B101F062F840001049002240F265
:102D3000E733B0FBF1F10E484FF080440460C0E986
:102D40000332491EC0E9011201F0EFFF28B1012052
:102D50000AB010BD01F04AF8E7E7054802F018F89C
:102D6000F6E700000C000024E844025840420F003F
:102D700090040024154BF0B5083B427813491A60C3
:102D80000B680A1F23F001030B6043681360057B87
:102D9000C67A827A437B2D07847B45EA0665C77B2A
:102DA00090F809C0067A90F800E045EAC24040EA8F
:102DB000834040EA444040EA074040EA0C2040EAB1
:102DC000460040EA0E000860F0BD0000A0ED00E003
:102DD000BFF35F8F044800210368034A23F4803364
:102DE000036070321160704724ED00E0074A40F044
:102DF0000100064970321060086840F480300860B5
:102E0000BFF34F8FBFF36F8F7047000024ED00E0DA
:102E1000074882B0016841F00201016000680022A9
:102E20000F2100F002000090901E02B000F010B8D8
:102E3000F4440258002809DB410900F01F02890010
:102E4000012001F1E0219040C1F80001704700002D
:102E50000E4BF0B41B680D46C3F30223C3F1070603
:102E6000042E00D90426191D072901D2002300E0F1
:102E7000DB1E012404FA06F19C40491E2940641E11
:102E8000994014402143F0BC03F082BD0CED00E0FA
:102E9000064900F0070210B54FF6FF040868044B1E
:102EA000204040EA02201843086010BD0CED00E00D
:102EB0000000FA05134970B50A68D243520705D5D8
:102EC000096801F00701814213D118E00A6822F075
:102ED000070202430A60FFF7CBFE0A4D4FF47A76F1
:102EE0000446083D07E000BFFFF7C2FE001BB042EA
:102EF00001D9012070BD2868C0438004F4D40020AB
:102F000070BD00000C48025810B500F04DFF054997
:102F10000968054AC1F30211515C01F01F01C84064
:102F200010BD000020440258648A0008494930B5A9
:102F3000484C0B1D0A68143409681D68246802F0A7
:102F40000303C5F30012C1F30531C4F3CC04002917
:102F500014FB02F200EE102AF8EE400A75D03F4A48
:102F60009FED3D1AB7EE000A6BB1DFED3D1A012B64
:102F700001D0022B64D002EE101A1168F8EE422A3A
:102F800081EEA22A21E0334C283C23689B0612D50F
:102F9000344B246801EE901A1168C4F3C104F8EEB2
:102FA000612AE34001EE903AC1F30801F8EE611A9C
:102FB00081EEA22A0BE001EE901ADFED2B2A00BF72
:102FC000F8EE611A116882EEA12AC1F3080101EE40
:102FD000901A1168F8EE611A40EE811A71EE800ABB
:102FE00062EE200AC1F3462101EE101AB8EE411A32
:102FF00031EE001AC0EE811ABCEEE11A80ED001A23
:103000001168C1F3064101EE101AB8EE411A31EE13
:10301000001AC0EE811ABCEEE11A80ED011A1168A7
:10302000C1F3066101EE101AB8EE411A31EE000A42
:1030300080EE801ABCEEC10A80ED020A30BD04E0C9
:1030400001EE901ADFED092ABAE700210160416024
:103050008160F3E7284402580000003938440258E0
:103060000024744A0090D0030024744C001BB74B1A
:10307000494930B5484C0B1D0A681C3409681D6865
:10308000246802F00303C5F30022C1F30551C4F321
:10309000CC04002914FB02F200EE102AF8EE400ADC
:1030A00075D03F4A9FED3D1AB7EE000A6BB1DFEDD8
:1030B0003D1A012B01D0022B64D002EE101A1168C8
:1030C000F8EE422A81EEA22A21E0334C283C236804
:1030D0009B0612D5344B246801EE901A1168C4F394
:1030E000C104F8EE612AE34001EE903AC1F3080111
:1030F000F8EE611A81EEA22A0BE001EE901ADFEDE4
:103100002B2A00BFF8EE611A116882EEA12AC1F3E2
:10311000080101EE901A1168F8EE611A40EE811A6A
:1031200071EE800A62EE200AC1F3462101EE101A08
:10313000B8EE411A31EE001AC0EE811ABCEEE11A67
:1031400080ED001A1168C1F3064101EE101AB8EEC5
:10315000411A31EE001AC0EE811ABCEEE11A80ED80
:10316000011A1168C1F3066101EE101AB8EE411A96
:1031700031EE000A80EE801ABCEEC10A80ED020A30
:1031800030BD04E001EE901ADFED092ABAE7002114
:10319000016041608160F3E7284402580000003973
:1031A000404402580024744A0090D0030024744C18
:1031B000001BB74B2DE9FE4F0546DFF800A450F881
:1031C000081B0024FD4FC943019005F12800264645
:1031D0000AF1240A009008011DD4686E50B1B0F5C0
:1031E000801F0CD0B0F5001F0ED0B0F5401F1ED0D0
:1031F00001240FE0386840F40030386017E001988F
:10320000022102F083FC03E00098022102F00EFD8F
:1032100004000CD026462888C043C00523D4A86DDE
:1032200005281ED2DFE800F00C11161B1B006A6E89
:10323000DAF8001021F440111143CAF80010EAE74F
:10324000386840F40030386009E00198002102F04D
:103250005DFC03E00098002102F0E8FC0446C4B1E4
:1032600000E0012426462888DFF85083C04308F197
:103270002C0840052FD4D5F8A400B0F5C00F28D0F5
:1032800010DCB8B1B0F5001F19D0B0F5800F0FD128
:103290001AE0AA6DDAF8001021F007011143CAF80C
:1032A0000010E0E7B0F5000F13D0B0F5200F10D0FC
:1032B00001240FE0386840F40030386009E00198DC
:1032C000002102F023FC03E00098002102F0AEFC94
:1032D000044694B126462888C043000530D4D5F86A
:1032E000A800B0F1407F29D011DCC0B1B0F1807FDF
:1032F0001AD0B0F1007F10D11BE0D5F8A420D8F887
:10330000001021F460011143C8F80010E3E7B0F1A8
:10331000806F13D0B0F1A06F10D001240FE0386897
:1033200040F40030386009E00198002102F0EEFB23
:1033300003E00098002102F079FC044694B126468F
:103340002868DFF878B2C0430BF1200B80011FD44E
:10335000E86CD8B110280FD0202812D0302815D012
:10336000012414E0D5F8A820D8F8001021F0E0617D
:103370001143C8F80010E3E7386840F400303860C3
:1033800004E00198022102F0C1FB044674B1264614
:103390002888C043C0042BD4E86DB0F5005F20D06E
:1033A0000DDCA0B1B0F5805F0FD115E0EA6CDBF861
:1033B000001021F030011143CBF80010E8E7B0F520
:1033C000405F13D0B0F5804F10D001240FE0386873
:1033D00040F40030386009E00198002102F096FBCB
:1033E00003E00098002102F021FC04468CB126463F
:1033F0002888C043800429D4286EB0F5403F23D0EC
:1034000010DC08B3B0F5803F14D0B0F5003F0FD109
:1034100015E0EA6DDAF8001021F4E0411143CAF832
:103420000010E5E7B0F5802F0ED0B0F5A02F0BD03F
:1034300001240AE00198012102F068FB03E00098F2
:10344000012102F0F3FB044694B126462888C043CC
:1034500040042AD4D5F8AC00B0F1405F23D010DC92
:1034600008B3B0F1805F14D0B0F1005F0FD115E068
:103470002A6EDAF8001021F4E0211143CAF8001096
:10348000E4E7B0F1804F0ED0B0F1A04F0BD0012493
:103490000AE00198012102F039FB03E000980121C4
:1034A00002F0C4FB044674B126462888C0430004D9
:1034B0001FD4E86ED8B1B0F1805F0ED0B0F1005FDC
:1034C00010D0012414E0D5F8AC20D8F8001021F079
:1034D000E0411143C8F80010E7E7386840F40030D5
:1034E000386004E00198012102F010FB044674B139
:1034F00026462868C043C0011ED4A86CD0B101285C
:103500000ED0022811D0032814D0012413E0EA6E53
:10351000DAF8001021F040511143CAF80010E8E732
:10352000386840F40030386004E00198022102F06D
:10353000EDFA04466CB126462868C043400255D4D3
:103540001F48016841F480710160FFF791FB8146DB
:103550000EE0AA6CDBF8001021F003011143CBF858
:103560000010E9E7FFF784FBA0EB090064283BD8D3
:1035700013480068C005F5D5BCBBDFF84090B5F82E
:10358000B01009F14409D9F8000001F4407100F4C9
:103590004070884211D0D9F80010D9F8002021F4E9
:1035A000407142F48032C9F80020D9F8002022F49A
:1035B0008032C9F80020C9F8001003E02C440258FA
:1035C00000480258D5F8B000B0F5807F19D1FFF758
:1035D0004FFB029011E000BFFFF74AFB0299411A2E
:1035E00041F28830814208D9032426462878DFF842
:1035F0001494C043C00721D03CE0D9F800008007F4
:10360000EAD5D5F8B010C1F301200328FE480DD04B
:10361000016821F47C510160B5F8B020D9F80010A0
:10362000C2F30B021143C9F80010DFE7F74A036841
:1036300002EA111223F47C511143ECE7A86F182819
:1036400016D005DCA0B1082808D0102804D10AE063
:1036500020280DD028280BD001240AE00198012150
:1036600002F054FA03E00098012102F0DFFA044668
:1036700064B126462878C04380071ED4686F0628A8
:1036800019D2DFE800F0160C11161616AA6FD9F839
:10369000001021F038011143C9F80010EAE7019841
:1036A000012102F033FA03E00098012102F0BEFA92
:1036B00004467CB100E0012426462878C043400738
:1036C0001FD4D5F89000062819D2DFE800F0160CB8
:1036D000111616166A6FD9F8001021F00701114370
:1036E000C9F80010E9E70198012102F00FFA03E0A0
:1036F0000098012102F09AFA0446A4B100E00124E6
:1037000026462878C04380062BD4D5F88C00B0F12B
:10371000405F24D011DC10B3B0F1805F15D0B0F160
:10372000005F10D116E0D5F89020D8F8001021F0F5
:1037300007011143C8F80010E3E7B0F1804F0ED045
:10374000B0F1A04F0BD001240AE00198002102F053
:10375000DDF903E00098022102F068FA044694B112
:1037600026462878C04340062BD4D5F89800B0F5FB
:10377000406F24D011DC10B3B0F5806F15D0B0F5D8
:10378000006F10D116E0D5F88C20D9F8001021F088
:10379000E0411143C9F80010E3E7B0F5805F0ED0B7
:1037A000B0F5A05F0BD001240AE00198002102F0DF
:1037B000ADF903E00098022102F038FA044694B112
:1037C00026462878C04300062BD4D5F89C00B0F5D7
:1037D000C04F24D011DC10B3B0F5005F15D0B0F5A8
:1037E000804F10D116E0D5F89820D8F8001021F4B9
:1037F000E0511143C8F80010E3E7B0F5004F0ED0D8
:10380000B0F5204F0BD001240AE00198002102F00E
:103810007DF903E00098022102F008FA044654B151
:1038200026462878C04300071ED4D5F88000B0F59E
:10383000805F0AD00FE0D5F89C20D8F8001021F462
:1038400060411143C8F80010EBE70098022102F034
:10385000EDF900B10126D5F88020D9F8001021F447
:1038600040511143C9F800102878C043C00613D452
:10387000D5F89400B0F5807F05D10098022102F0C0
:10388000D5F900B10126D5F89420D8F8001021F41C
:1038900040711143C8F800102868C043000316D4D3
:1038A000D5F8A00038B1B0F5803F09D0B0F5003FA1
:1038B0000BD001240AE00198002102F027F903E06F
:1038C0000098022102F0B2F904468CB1264628681D
:1038D000C043400322D4D5F88400B0F5801F11D036
:1038E000B0F5001F13D0B0F5401F15D0012414E02F
:1038F000D5F8A020D8F8001021F440311143C8F8C1
:103900000010E4E7386840F40030386004E00098C4
:10391000012102F08BF904465CB126462868C043B9
:10392000C0031CD4286D70B1B0F5803F10D00124C5
:1039300014E0D5F88420D9F8001021F44011114387
:10394000C9F80010EAE7386840F40030386004E055
:103950000198022102F0DAF80446DCB12646286814
:10396000C043800005D40098022102F05FF900B145
:1039700001262868C04380031BD4E86FB8B1B0F5B6
:10398000807F10D0B0F5007F11D0B0F5407F0ED011
:1039900001240DE02A6DDBF8001021F48031114381
:1039A000CBF80010DBE7386840F4003038607CB3B7
:1039B00026462868C043C00207D42A6FDAF80010F0
:1039C00021F000411143CAF800102868C04380026A
:1039D00007D4AA6EDAF8001021F080711143CAF8FA
:1039E00000102868C043400009D40748016821F44A
:1039F000004101600168D5F8B420114301602868D6
:103A0000C04306E05444025810440258CFFFFF0060
:103A10001DE007D46A6DDBF8001021F0405111431E
:103A2000CBF800102868C043000208D4D5F88820DD
:103A3000D9F8001021F440011143C9F80010287989
:103A40000024C04300F00100204309D00EE0EA6FDB
:103A5000D9F8001021F440711143C9F80010A8E70B
:103A60000198002102F052F800B106462879C043BF
:103A700000F00200204305D10198012102F046F830
:103A800000B106462879C04300F00400204305D168
:103A90000198022102F03AF800B106462879C043A5
:103AA00000F00800204305D10098002102F0BEF884
:103AB00000B106462879C04300F01000204305D12C
:103AC0000098012102F0B2F800B106462879C043FF
:103AD00000F02000044304D10098022102F0A6F86F
:103AE00000B916B10120BDE8FE8F0020FBE7000001
:103AF0002DE9F05F04000F467ED0DFF83882D8F859
:103B0000000000F00F00B8420CD2D8F8001021F0ED
:103B10000F013943C8F80010D8F8000000F00F007A
:103B2000B84269D12078844D40070AD520692968B8
:103B300001F07001884204D9296821F07001014325
:103B4000296020787C4E361D00070AD560693168EF
:103B500001F07001884204D9316821F070010143FD
:103B600031602078C0060AD5A069316801F4E061AF
:103B7000884204D9316821F4E06101433160207842
:103B8000DFF8B4B180060BF1080B0CD5E16958469B
:103B9000DBF8002002F07002914204D9026822F0A2
:103BA00070020A430260207880070AD5E06829681D
:103BB00001F00F01884204D9296821F00F01014367
:103BC00029602078C0073ED05B49A2682868183970
:103BD00020F47060104328606068022818D0032821
:103BE00019D00968012819D0490700294ADADFF8F5
:103BF00048A1AAF1080A00E044E0DAF8002022F027
:103C000007020243CAF80020FFF732F8814612E0AB
:103C100009688903E9E709688901E6E7C905E4E776
:103C2000FFF726F8A0EB090141F28830814202D962
:103C30000320BDE8F09F6168DAF8000000F038006A
:103C4000B0EBC10FECD1207880070AD5E068296875
:103C500001F00F01884204D2296821F00F010143CD
:103C60002960D8F80010404601F00F01B9420BD985
:103C7000016821F00F0139430160006800F00F0076
:103C8000B84201D00120D4E7207840070AD5206946
:103C9000296801F07001884204D2296821F070017E
:103CA00001432960207800070AD56069316801F076
:103CB0007001884204D2316821F070010143316003
:103CC0002078C0060AD5A069316801F4E061884215
:103CD00004D2316821F4E06101433160207880062C
:103CE0000CD5E1695846DBF8002002F070029142E1
:103CF00004D2026822F070020A43026000F09AF8CF
:103D00000E492A682B68C2F3032203F00F038A5C72
:103D1000C95C02F01F0201F01F01D040084A20FADE
:103D200001F111600749086007480068BDE8F05FCD
:103D3000FEF7DABF0020005218440258648A0008D7
:103D400018000024140000240C00002470B5144C4A
:103D50003F220260124A24680832131D114D04F0FC
:103D60000704446016681C1D06F4706686601668B9
:103D700006F00F06C660126802F0700202611A684F
:103D800002F0700242611A6802F4E0628261226805
:103D900002F07002C261286800F00F00086070BD78
:103DA000104402580020005230B500F043F80B4A8E
:103DB0000B490C4B15681468C5F3032204F00F047B
:103DC0008A5C095D02F01F0201F01F01D040064A23
:103DD00020FA01F119601060084630BD18440258FD
:103DE000648A0008180000241400002400B5FFF7BE
:103DF000DBFF05490968054AC1F30211515C01F076
:103E00001F01C84000BD00001C440258648A00081D
:103E100000B5FFF7C9FF05490968054AC1F302214A
:103E2000515C01F01F01C84000BD00001C44025855
:103E3000648A0008454970B545480968434B103B02
:103E400011F0380208D00111082A03D0102A0BD033
:103E5000182A0BD0084670BD19688906FBD5196869
:103E6000C1F3C101C84070BD3A4870BD3749374DF4
:103E700018310C1D24350A68096826682D6802F07F
:103E8000030406F00102C1F30511C5F3CC0515FBCF
:103E900002F200EE102AB8EE400AE9B32F4ADFED35
:103EA0002E0AB7EE001A6CB1DFED2D1A012C01D0ED
:103EB000022C43D002EE101A1068F8EE422A81EE6E
:103EC000A22A1EE01C68A40611D51B6801EE901AF8
:103ED0001168C3F3C103F8EE612AD84001EE900ADD
:103EE000C1F30800F8EE611A81EEA22A0BE001EEA0
:103EF000901ADFED1C2A00BFF8EE611A106882EEFE
:103F0000A12AC0F3080001EE900AF8EE611A40EE13
:103F1000201A31EE810A00E015E022EE000A106856
:103F2000C0F34620401C00EE900AF8EE600A80EED6
:103F3000201ABCEEC10A10EE100A70BD01EE901AF4
:103F4000DFED092AD8E7002070BD000010440258B8
:103F50000090D00300366E01000000393044025852
:103F60000024744A0024744C001BB74B2DE9F05F09
:103F700004007DD0FF4F2078FE4D1837DFF8F48322
:103F8000103DC00748D0D8F80000396800F038006C
:103F9000102815D0182803D101F0030002280FD0F3
:103FA0006068B0F5803F12D010B1B0F5A02F18D0E6
:103FB000286820F480302860286820F4802009E0F8
:103FC0002868800328D560680028D2D024E02868BB
:103FD00040F480302860606888B1FEF749FE0646EC
:103FE00009E0286840F480202860F0E7FEF740FEF2
:103FF000801B64287ED828688003F7D50CE0FEF784
:1040000037FE064605E000BFFEF732FE801B64283F
:10401000F0D828688003F7D42078800756D5D8F8E0
:104020000000DFF85093396810F03800A9F10C094E
:104030000ED0182801D188070AD0E068A8B32968F3
:1040400021F0190101432960FEF712FE064628E01F
:104050002868400702D5E06800288AD0E16828680F
:1040600020F0190008432860FEF702FE064606E02D
:10407000D2E000BFFEF7FCFD801B0228BAD82868FA
:104080004007F7D5217CD9F8002022F0FE4242EA11
:104090000161C9F8001019E0FEF7EAFD801B022853
:1040A000A8D828684007F7D5ECE7FFE7286820F094
:1040B00001002860FEF7DCFD064604E0FEF7D8FDAF
:1040C000801B022896D828684007F7D42078C006BD
:1040D00046D5D8F80000DFF89C92396800F0380027
:1040E000A9F10409082812D0182805D101F003000D
:1040F000012800E0CEE00AD0E0690028286820D03E
:1041000040F080002860FEF7B3FD064615E0286801
:10411000C00502D5E06980287ED194F82010D9F836
:10412000002022F07C5242EA0161C9F8001017E039
:10413000FEF79EFD801B0228A0D82868C005F7D591
:10414000EBE720F080002860FEF792FD064604E0D1
:10415000FEF78EFD801B022890D82868C005F7D492
:104160002078000729D58348616964300029814699
:10417000016811D041F001010160FEF779FD0646AA
:1041800005E000BFFEF774FD801B022888D8D9F82F
:1041900000008007F6D510E021F001010160FEF774
:1041A00067FD064605E000BFFEF762FD801B0228A2
:1041B00070D8D9F800008007F6D42078800623D57F
:1041C000A0690028286810D040F480502860FEF7CD
:1041D0004FFD064605E000BFFEF74AFD801B0228A2
:1041E00058D828688004F7D50EE020F48050286065
:1041F000FEF73EFD064604E0FEF73AFD801B02286E
:1042000048D828688004F7D42078400751D5DFF8D3
:104210006891D9F8001000E015E141F48071C9F807
:104220000010FEF725FD064605E000BFFEF720FD65
:10423000801B64282ED8D9F80000C005F6D54D4E55
:10424000A068603601280AD008B1052813D030686C
:1042500020F001003060306820F0040002E0306897
:1042600040F001003060A06841F2883A98B1FEF752
:10427000FFFC81460AE0306840F004003060EEE761
:10428000FEF7F6FCA0EB0901514503D83068800722
:10429000F6D50EE072E0FEF7EBFC814606E000BFCB
:1042A000FEF7E6FCA0EB0901514567D830688007AE
:1042B000F6D4606A00287CD0DFF8B8A0D8F80010E7
:1042C0000AF1200A4FF6F87B0AF10408C1F3C20193
:1042D0000329AAF104096DD00228286820F0807013
:1042E000286003D0FEF7C4FC044681E0FEF7C0FC62
:1042F000064604E0FEF7BCFC801B022875D828683F
:104300008001F7D4E26A40F2F331386854F8283F6C
:10431000884340EA021018433860217B4FF4FE0CBA
:1043200022894FF0FE47208A4902267D521E401EF8
:10433000A1F5007189B2C2F308021143761E0CEA9E
:1043400000400143484607EA06621143CAF80010DC
:10435000D9F8001021F00101C9F80010D8F8003098
:10436000266A23EA0B0343EAC601C8F80010D9F80D
:10437000001004E0104402580048025835E0A269D9
:1043800021F00C011143C9F800100168E26921F025
:10439000020111430160016841F48031016001684C
:1043A00041F400310160016841F48021016001683D
:1043B00001E06CE020E041F001010160286840F07C
:1043C00080702860FEF754FC044604E0FEF750FCC1
:1043D000001B022809D828688001F7D557E000BFE4
:1043E000FEF746FC001B022802D90320BDE8F09F1F
:1043F00028688001F4D44AE039680128DAF800001E
:1044000021D0A26A01F0030393421CD1E26AC1F3F6
:1044100005118A4217D1216BC0F30802491E8A4256
:1044200011D1616BC0F34622491E91420BD1A16BA1
:10443000C0F30642491E914205D1E16BC0F306600C
:10444000491E814201D00120D0E7A16C4646D8F830
:104450000000C0F3CC00814219D0D9F800004D46CD
:1044600020F00100C9F80000FEF702FC4FEA000747
:10447000FEF7FEFBB842FBD0A26C306820EA0B00CE
:1044800040EAC2003060286840F001002860002047
:10449000ACE770472DE9F047044600680021036946
:1044A0004269876894F8816000F130095FEA025C34
:1044B00003EA02050AD51A0708D5816941F40061AB
:1044C0008161204600F07FFABDE8F08715F0600FAB
:1044D00008D1680706D5616F20468847216F2046BE
:1044E0008847012105F04100012805D1680703D460
:1044F000216F20468847012105F02200022806D1BD
:10450000680704D4616F2046BDE8F04708470029DA
:10451000DAD128074FF001085BD52068816941F0A6
:10452000080181612068816941F010018161206882
:10453000816941F4006181612068016921F008010D
:1045400001612068806810F4404F20D023E0E068CB
:104550000F2806D92068616E006B0860606E001D30
:104560000FE0072806D9B9F80000616E0880606E78
:10457000801C06E02068616E90F830000870606E64
:10458000401C6066B4F86A00401EA4F86A00B4F8E3
:104590006A000028DBD1204601F0DEFB84F8818030
:1045A000D4F8840018B12046FFF773FF8CE7052E7E
:1045B00007D0042E09D0032E86D1204600F0A8FB98
:1045C00082E7204600F0A5FB7EE7204600F0FAF9DE
:1045D0007AE715F4587FE9D068060AD5D4F8840044
:1045E00040F00400C4F884002068816941F0400173
:1045F0008161A8050AD5D4F8840040F00100C4F810
:1046000084002068816941F400718161E8050AD560
:10461000D4F8840040F00800C4F884002068816960
:1046200041F480718161A8060AD5D4F8840040F075
:104630008000C4F884002068816941F02001816114
:10464000D4F884000028B1D0206840F26B32C7F360
:1046500081310368032923F00101016020680169A9
:1046600021EA0201016102D084F881809BE7206881
:10467000104D816821F440418160E06F50B10565C3
:10468000E06FFCF7EDFE28B1D4F8840040F0400064
:10469000C4F88400A06F002888D00565A06FFCF7DF
:1046A000DFFE00288CD0D4F8840040F04000C4F82D
:1046B000840009E7155E00082DE9F047040029D0C1
:1046C000594A4FF000092068584B594D9042C4F8A0
:1046D000289006D0984204D0A84202D0E1680F2961
:1046E00018D8E1684FF0010AE76B0831C9080AEBF6
:1046F00057167143904205D0984203D0A84201D08A
:10470000082907D8904203D0984201D0A84204D18A
:10471000102902D90120BDE8F08794F8810020B962
:10472000204684F8809000F085F8022084F881000B
:104730002068016821F0010101602068A169826898
:10474000B1F1806F02F4F81110D16268B2F5800FF8
:1047500001D01AB10AE0A26B22B107E0A26BB2F15C
:10476000805F03D1026842F48052026060684002B8
:1047700009D5E068072806D32068236D026822F473
:1047800080721A4303E02068026822F4807202609B
:10479000A66AE069E26B25683043E3680A43104388
:1047A0001843A860D4E90D02D4E90581636A25693C
:1047B0001843D4F820C00A43266810432843A56D47
:1047C000D4E90172D4E9123140EA080040EA0C0051
:1047D00038430843104318432843F060606868B9C1
:1047E0002068816821F4C05141F400618160206833
:1047F000816821F4C06141F4806181602068016DAD
:1048000021F0010101656068400206D52068626DF3
:10481000C16821F000411143C160C4F8849084F85C
:1048200081A0002077E70000003001400038004000
:10483000003C00402DE9F041B4B0074614212EA8F9
:10484000FBF72CFFB8216846FBF728FF55490225E6
:1048500038680024544E884277D181141794002080
:10486000CDE900106846FEF7A5FC08B1FCF707FB90
:104870004D480830016841F480410160006800F44F
:1048800080403390306840F004003060306800F0C1
:1048900004003390306840F0020030603068052634
:1048A0002EA900F00200339006202E90CDE92F545F
:1048B0003E48CDE93146FEF7C7F84FF400502E9040
:1048C000CDE92F543A482EA9CDE93146FEF7BCF880
:1048D000384E4FF4806838492722304631604FF413
:1048E0004031C6E90124C6E903487461B461C6E9F0
:1048F00007417462FDF76AFA08B1FCF7C0FA2D4D62
:1049000040232D4928227835FE673031B76302C530
:10491000D902281F85E81C012C616C61C5E906419C
:104920002C622D1FFDF752FA08B1FCF7A8FABD67FB
:1049300000220A21AF632420FEF78AFA2420FEF722
:1049400079FA34B0BDE8F081FFE71C498842F8D11C
:1049500000202B944FF48041CDE900106846FEF70B
:1049600029FC08B1FCF78BFA0F481430016841F0BC
:1049700020010160006800F020003390306840F0B2
:10498000010030603068082100F001003390A02061
:104990002E90CDE92F54CDE9314109482EA9FEF7DB
:1049A00053F8CEE700380040E044025800080258AF
:1049B0000004025894020024100002400014005821
:1049C00000000258704770472DE9FF4F0446C06B46
:1049D00017461D4683B042092068521C00F1200191
:1049E00030301FFA82FBCDE90001FEF741F9824623
:1049F00094F881002E46012835D1049800287CD0F7
:104A0000002FFCD0002DFAD094F8800001282AD085
:104A10004FF0010984F8809005224FF0000884F8D7
:104A20008120C4F884806766A4F86A50A4F86850AE
:104A30000499E165A4F86250A4F86050C4F870804D
:104A4000C4F874802068C16821F4C021C160AD49F8
:104A50002068884205D0AC49884202D0AB498842E0
:104A600005D1102704E0022007B0BDE8F08F082729
:104A700041686FF30F01294341602068016841F0EC
:104A8000010101606068B0F5800F04D12068016801
:104A900041F400710160E0680F284CD9BF0838E08C
:104AA00020684169890710D57EB1F119A9420CD956
:104AB000E16D09680162E06D001DE065B4F8620017
:104AC000401EA4F86200B4F862602068416905B332
:104AD0004269D20703D15D4510D209040ED5006B9F
:104AE000616E0860606E001D6066B4F86A00401E6A
:104AF000A4F86A00B4F86A500BE0F0E0FEF7B8F8EA
:104B0000A0EB0A011098814202D3401C01D004E0BE
:104B100018B156EA0500C3D1C8E0204601F01CF9DF
:104B2000D4F8840084F8808040F48070C4F8840055
:104B300084F88190E2E007287BD97F084EE0206866
:104B40004069800711D586B1F019A8420DD9E06DF2
:104B5000018801980180E06D801CE065B4F8620076
:104B6000401EA4F86200B4F86260216848692DB361
:104B70004969C9070AD000980088616E0880606E94
:104B8000801C6066B4F86A00401E13E05D4516D2D2
:104B9000010414D500980088616E0880606E801C46
:104BA0006066009909880180606E801C6066B4F8B8
:104BB0006A00801EA4F86A00B4F86A500EE0012D65
:104BC00001D18004D7D4FEF753F8A0EB0A01109866
:104BD000814202D3401C01D083E058B356EA05005D
:104BE000ADD163E020684169890711D586B1F1191B
:104BF000A9420DD9E16D097880F82010E06D401CC4
:104C0000E065B4F86200401EA4F86200B4F8626087
:104C1000206841696DB14269D2070CD090F830002C
:104C2000616E0870606E401C6066B4F86A00401ED9
:104C300024E038E055E05D4525D20A0423D590F8FC
:104C40003000616E0870606E401C6066216891F8EB
:104C500030100170606E401C6066216891F8301061
:104C60000170606E401C6066216891F83010017020
:104C7000606E401C6066B4F86A00001FA4F86A0009
:104C8000B4F86A500FE0042D02D211F4C04FC5D120
:104C9000FDF7EEFFA0EB0A011098814202D3401C01
:104CA00001D01EE0E8B156EA05009BD1109B00221E
:104CB00008212046CDF800A001F0BAF828B1D4F8B8
:104CC000840040F02000C4F88400204601F044F83D
:104CD00084F88190D4F8841084F8808081B1012018
:104CE000C2E6204601F038F8D4F8842084F88080A9
:104CF00042F48072C4F8842084F881900320B3E6E3
:104D00000020B1E60030014000380040003C004087
:104D100070477047024A136883430B431360704720
:104D20000404005870477047704710B5040003D062
:104D300094F83D0010B107E0012010BD002084F878
:104D40003C00204600F022F8022084F83D00206854
:104D5000211D01F05FF9012084F8480084F83E002D
:104D600084F83F0084F8400084F8410084F8420051
:104D700084F8430084F8440084F8450084F8460031
:104D800084F8470084F83D00002010BD7047000003
:104D900090F83D10012901D0012070471A4A0221E4
:104DA00080F83D100168CB6843F00103CB600068D8
:104DB00090421AD0B0F1804F17D01449884214D0D5
:104DC0001349884211D0134988420ED012498842B3
:104DD0000BD01249884208D01149884205D01149A8
:104DE000884202D01049884207D181680F4A114099
:104DF000062906D0B1F5803F03D0016841F00101DA
:104E000001600020704700000000014000040040E5
:104E100000080040000C0040000401400018004061
:104E20000040014000E0004000E4004007000100B5
:104E300070472DE9F041044600680027C6680569FF
:104E4000A90713D5B10711D5FA1E026101212177F7
:104E5000206880698007204602D0FFF7E9FF04E060
:104E600000F08BF8204600F089F82777680716D500
:104E7000700714D5226802206FF0040111612077B9
:104E80002068806910F4407F204602D0FFF7D0FFF1
:104E900004E000F072F8204600F070F82777280749
:104EA00015D5300713D5226804206FF00801116171
:104EB00020772068C0698007204602D0FFF7B8FF3E
:104EC00004E000F05AF8204600F058F82777E8068A
:104ED00016D5F00614D5226808206FF01001116174
:104EE00020772068C06910F4407F204602D0FFF789
:104EF0009FFF04E000F041F8204600F03FF82777DC
:104F0000E80708D0F00706D021686FF001000861BB
:104F1000204600F034F8280601D4A80408D530064D
:104F200006D521686FF4025008612046FFF7FBFEAA
:104F3000E80508D5300606D521686FF48070086151
:104F40002046FFF7EFFE680608D5700606D52168F3
:104F50006FF040000861204600F018F8A8060AD556
:104F6000B00608D521686FF0200008612046BDE832
:104F7000F041FFF7D9BEBDE8F08170477047006887
:104F8000B0F1804F01D1FDF779BE7047704730B561
:104F900090F88410012918D0012280F8842024215F
:104FA000C0F888100022202401680B680D6823F0E7
:104FB000005325F001050D60426601680B60C0F8E2
:104FC000884080F88420104630BD022030BD10B5E6
:104FD0000446D0F88C00202801D0022010BD61B119
:104FE0005AB10123E36600202067204601F01EFC31
:104FF0000028F3D1E16E012901D0012010BD226803
:1050000010211162226852E8001F41F0100142E8AD
:105010000013002BF6D110BD10B500680D4A904268
:1050200016D10E4820290C494FF0400208D8FFF74E
:10503000CEFF0949BDE8104001F1200002F032BD69
:10504000FFF7C5FFBDE8104003482021FBF704BB74
:1050500010BD000000500040DC0400248403002444
:10506000704770B5044690F8840001281DD00122D5
:1050700084F884202420C4F8880020680568026829
:1050800022F0010202602068826822F060620A4316
:105090008260204601F03EF8226820210020156041
:1050A000C4F8881084F8840070BD022070BD70B50B
:1050B000044690F8840001281DD0012284F8842041
:1050C0002420C4F8880020680568026822F00102E4
:1050D00002602068826822F060420A4382602046B3
:1050E00001F018F82268202100201560C4F888100B
:1050F00084F8840070BD022070BD704770470000C6
:1051000010B50068074988420AD10749402207487C
:10511000FFF75DFFBDE8104003482021FBF79CBA74
:1051200010BD000000500040DC0400248403002473
:105130002DE9F04107680025044640F60F030226DA
:10514000F8693968BA6818420AD183067ED501F039
:10515000200302F0805C53EA0C0377D0616F7EE19C
:10516000D44BDFF854C3134001EA0C0C53EA0C0C87
:105170006CD05FEAC07C0CD05FEAC15C09D54FF00F
:10518000010CC7F820C0D4F8907047F00107C4F8AC
:105190009070870709D5D70707D027683E62D4F8F3
:1051A000906046F00406C4F8906046070AD5D6071A
:1051B00008D0276804263E62D4F8906046F00206C4
:1051C000C4F8906006070CD501F020061E4308D0F5
:1051D000266808233362D4F8903043F00803C4F8FB
:1051E000903003050BD54B0109D526684FF40063B9
:1051F0003362D4F8903043F02003C4F89030D4F8F0
:105200009030002B3DD0800609D501F0200002F03F
:105210008051084303D0616F09B120468847216857
:10522000D4F890008968490602D410F0280F2AD0DB
:10523000204601F0CBF82068806840061ED5206823
:10524000083050E8001F21F0400100E021E040E874
:105250000012002AF3D1D4F8800078B19749016593
:10526000D4F88000FCF7FCF800280AD0D4F88000BD
:10527000016D00E02046BDE8F04108472046FFF7F9
:105280003FFFBDE8F0812046FFF73AFFC4F8905099
:10529000F7E7D4F86CC02023BCF1010F7ED15FEAA0
:1052A000C06C7BD55FEAC16C78D51020386220686D
:1052B0008068400673D5D4F8802081491068884200
:1052C00034D07F491831884230D07D49303188420E
:1052D0002CD07B494831884228D0794960318842B6
:1052E00024D077497831884220D07549903188425E
:1052F0001CD07349A831884218D07249884215D011
:1053000070491831884211D06E49303188420DD031
:105310006C494831884209D06A496031884205D0D9
:1053200068497831884201D06649903140684FF42D
:1053300080770004000C40D0B4F85C1081423CD966
:10534000A4F85E00D069B8422FD0216851E8000F60
:1053500020F4807041E80002002AF6D1206808306D
:1053600050E8001F21F0010140E80012002AF5D1A9
:105370002068083050E8001F21F0400140E800128A
:10538000002AF5D1C4F88C30E566206850E8001F8B
:1053900021F0100140E80012002A01E04AE019E083
:1053A000F3D1D4F88000FBF7ABFE2667B4F85C00BD
:1053B000B4F85E10401A81B208E0B4F85C10814283
:1053C0007FF466AFD069B842FAD126672046FFF76E
:1053D00023FE56E7B4F85C00B4F85E10B4F85E2023
:1053E000401A81B2002AF4D00029F2D0226852E893
:1053F000000F20F4907042E80007002FF6D1324FE2
:10540000206800F1080050E8002F02EA070240E897
:10541000002CBCF1000FF3D1C4F88C30E566656751
:10542000226852E8000F20F0100042E80003002B31
:10543000F6D1CAE7C60209D5560207D54FF4801047
:1054400038622046BDE8F041FFF758BE06060AD58F
:1054500001F0800602F40002164304D0A16F002977
:105460007FF408AF0DE7420611D54A060FD5204656
:10547000016851E8002F22F0400241E80024002C8E
:10548000F6D1C0F88830856700F0CEF8F9E6020260
:1054900006D54A0004D52046BDE8F041FFF72DBEF1
:1054A000C00196D5002994DA2046BDE8F041FFF707
:1054B000D7BD00000100001020010004CB620008ED
:1054C0001000024010040240FEFFFFEF10B5040080
:1054D00003D0D4F8880010B107E0012010BD0020EF
:1054E00084F88400204600F027F82420C4F88800BF
:1054F0002068016821F001010160A06A10B1204616
:1055000000F02AFE204600F0A3FF0128E6D0206824
:10551000416821F4904141602068816821F02A01AE
:1055200081602068016841F0010101602046BDE80A
:10553000104000F075BE0000F0B5B5B0064614216D
:105540002EA8FBF7ABF8B8216846FBF7A7F82F4960
:105550003068884258D100201D9002210546CDE9CF
:1055600000106846FDF726FE08B1FBF788FC2848C6
:10557000016841F480110160006800F480103390EC
:1055800023480838016841F004010160016801F016
:1055900004013391016841F00801016000680224B0
:1055A0002EA900F008003390E002082781E83100BE
:1055B0001848CDE93157FDF747FA2EA9042081E8B4
:1055C00031001548CDE93157FDF73EFA134C412122
:1055D0001348021584E82300C4E90352656120469C
:1055E000A561E56125626562FCF7F0FB08B1FBF798
:1055F00046FCC6F8804000220521A6633520FDF751
:1056000027FC3520FDF716FC35B0F0BD00500040FA
:10561000E844025800080258000C025818040024FC
:1056200028000240704770477047FEE7114808B5F0
:10563000016841F00101016000680022052100F0CD
:10564000010000900B20FDF703FC0B20FDF7F2FB9F
:10565000002205210C20FDF7FBFB0C20FDF7EAFBE7
:10566000002206210D20FDF7F3FBBDE808400D20C8
:10567000FDF7E0BBD84402581848002170B5164D1C
:105680001D248160032605600A23C1600422017481
:1056900040F61205417481744661C0E90634C0E9E0
:1056A0000836C0E90A340363C0E90D51C0E90F129E
:1056B000C0E91121C0E91321C0E91521C0E9171281
:1056C000C0E91912FDF742F8002803D0BDE8704088
:1056D000FBF7D5BB70BD000000D40040E4000024FF
:1056E000074A0021074810B501F042FD064C002191
:1056F000034A24322060054801F03AFD606010BD85
:1057000090890008775E000800000024616F00089F
:10571000F0B587B014216846FAF7C0FF3048016839
:1057200041F004010160016801F004010591016884
:1057300041F080010160016801F08001059101687C
:1057400041F001010160016801F00101059101686A
:1057500041F010010160016801F01001059101683C
:1057600041F002010160016801F002010591016848
:1057700041F00801016000684FF46046194F0022B3
:1057800000F00800314605903846FDF76BFA01221B
:1057900038460921FDF766FA00240096012569467E
:1057A0003846CDE901540394FDF74EF90321092051
:1057B000CDE90005CDE9024169463846FDF744F9D7
:1057C0004FF4A0504FF488118DE813000648694645
:1057D000FDF73AF90021E806FFF79CFA07B0F0BDA3
:1057E000E044025800080258001002582DE9F04128
:1057F000164807264FF08042DFF84CC000215511B3
:1058000005611311C0E90216C0E9072141621712B0
:1058100081629411C162C0E90D21C16301644164D8
:105820008164C164016541658165C0E90543C0E9E2
:1058300000C7FEF741FF002803D0BDE8F041FBF7A9
:105840001EBBBDE8F0810000003800408401002448
:105850002DE9F04115484FF080420021124D94117E
:105860004FF0070C131183611612C0E90414C0E94C
:105870000721416257138162C162C0E90D21C163F2
:10588000016441648164C16401654165816580E8AA
:10589000E010FEF711FF002803D0BDE8F041FBF750
:1058A000EEBABDE8F0810000001400580C0200249C
:1058B00019480C2210B54FF4E134164B0021C0E911
:1058C000003481600223C160C0E904128161DC03FD
:1058D000C16104630162C0E90913FFF7F7FD08B174
:1058E000FBF7CDFA0C480021FFF7E1FB08B1FBF70D
:1058F000C6FA09480021FFF7B4FB08B1FBF7BFFA6D
:105900000548FFF744FB002803D0BDE81040FBF733
:10591000B6BA10BD0050004084030024F5EEC01A52
:10592000B0EE413AF0EE603AB0EE404AF1EE10FAD5
:10593000024600B509D1B5EEC02AF1EE10FA04D145
:10594000F5EEC02AF1EE10FA7AD021EEA10A02EEAD
:10595000020A02EEA20A01F06DFBF0EE404AD2ED1F
:10596000015A92ED030AD2ED000AB6EE005A25EE76
:10597000801A10EEA05AD2ED026A60EEA55A5E4877
:1059800021EEA46A00EEE61AD0ED011A46EE805A26
:1059900000EE005A22EE242A62EEA42AF5EEC01A86
:1059A000F1EE10FA62EE051A62EE810A26EE250A81
:1059B00042EEE51A46EE450A02EE410A2CDD9FED65
:1059C0004F1AD0ED012A90ED022A62EEA12A02EED2
:1059D000812A80ED022A90ED012A62EE202A90EDC4
:1059E000032A02EE812A80ED032A90ED012A62EE5D
:1059F000002A90ED042A02EE812A80ED042AD0EDDF
:105A0000022A90ED032A90ED041A34EE224A73EE36
:105A1000823A33EE013A07E09FED391A80ED021A1F
:105A200080ED031A80ED041AD0ED002A90ED002AD3
:105A300090ED001A02EEA14A42EE203A01EE003A41
:105A4000DFED304A92ED010A92ED001A64EE241A5D
:105A500063EEA42AD2ED020A23EE243A20EE615A24
:105A600061EE214A92ED032A61EE223A00EEE25AFB
:105A700040EE834A21EE034A40EE433A02EE435A97
:105A800042EE624A00EE224A42EE213A75EE012AC7
:105A900034EE801A00EEE14A73EEA00A22EEA20A6A
:105AA000C2ED002A82ED011AC2ED020A01EE010ADE
:105AB00074EE021AC2ED031A00EEA00A01EEA10A6A
:105AC00001F0B8FA92ED001A92ED012AD2ED021A15
:105AD000D2ED030A21EE001A22EE002A61EE801AAE
